{
  "_format": "hh3-artifact-1",
  "contractName": "AgroledgerProduce",
  "sourceName": "contracts/AgroLedgerProduce.sol",
  "abi": [
    {
      "anonymous": false,
      "inputs": [
        {
          "indexed": true,
          "internalType": "string",
          "name": "produceId",
          "type": "string"
        },
        {
          "indexed": false,
          "internalType": "uint256",
          "name": "price",
          "type": "uint256"
        },
        {
          "indexed": false,
          "internalType": "uint256",
          "name": "quantity",
          "type": "uint256"
        },
        {
          "indexed": false,
          "internalType": "address",
          "name": "syncedBy",
          "type": "address"
        }
      ],
      "name": "ListingSynced",
      "type": "event"
    },
    {
      "inputs": [
        {
          "internalType": "string",
          "name": "_produceId",
          "type": "string"
        }
      ],
      "name": "getListing",
      "outputs": [
        {
          "components": [
            {
              "internalType": "string",
              "name": "produceId",
              "type": "string"
            },
            {
              "internalType": "uint256",
              "name": "price",
              "type": "uint256"
            },
            {
              "internalType": "uint256",
              "name": "quantity",
              "type": "uint256"
            },
            {
              "internalType": "uint256",
              "name": "timestamp",
              "type": "uint256"
            },
            {
              "internalType": "address",
              "name": "syncedBy",
              "type": "address"
            }
          ],
          "internalType": "struct AgroledgerProduce.Listing",
          "name": "",
          "type": "tuple"
        }
      ],
      "stateMutability": "view",
      "type": "function"
    },
    {
      "inputs": [
        {
          "internalType": "string",
          "name": "",
          "type": "string"
        }
      ],
      "name": "listings",
      "outputs": [
        {
          "internalType": "string",
          "name": "produceId",
          "type": "string"
        },
        {
          "internalType": "uint256",
          "name": "price",
          "type": "uint256"
        },
        {
          "internalType": "uint256",
          "name": "quantity",
          "type": "uint256"
        },
        {
          "internalType": "uint256",
          "name": "timestamp",
          "type": "uint256"
        },
        {
          "internalType": "address",
          "name": "syncedBy",
          "type": "address"
        }
      ],
      "stateMutability": "view",
      "type": "function"
    },
    {
      "inputs": [
        {
          "internalType": "string",
          "name": "_produceId",
          "type": "string"
        },
        {
          "internalType": "uint256",
          "name": "_price",
          "type": "uint256"
        },
        {
          "internalType": "uint256",
          "name": "_qty",
          "type": "uint256"
        }
      ],
      "name": "syncProduce",
      "outputs": [],
      "stateMutability": "nonpayable",
      "type": "function"
    }
  ],
  "bytecode": "0x6080604052348015600e575f5ffd5b506107d78061001c5f395ff3fe608060405234801561000f575f5ffd5b506004361061003f575f3560e01c80634ae9ec301461004357806356d3212e1461006c57806377dec6c314610081575b5f5ffd5b610056610051366004610504565b6100a5565b604051610063919061056c565b60405180910390f35b61007f61007a3660046105c3565b6101cb565b005b61009461008f366004610504565b61039d565b60405161006395949392919061060d565b6100dc6040518060a00160405280606081526020015f81526020015f81526020015f81526020015f6001600160a01b031681525090565b5f826040516100eb919061064c565b90815260200160405180910390206040518060a00160405290815f8201805461011390610662565b80601f016020809104026020016040519081016040528092919081815260200182805461013f90610662565b801561018a5780601f106101615761010080835404028352916020019161018a565b820191905f5260205f20905b81548152906001019060200180831161016d57829003601f168201915b50505091835250506001820154602082015260028201546040820152600382015460608201526004909101546001600160a01b031660809091015292915050565b5f83511161020e5760405162461bcd60e51b815260206004820152600b60248201526a1251081c995c5d5a5c995960aa1b60448201526064015b60405180910390fd5b5f82116102515760405162461bcd60e51b815260206004820152601160248201527005072696365206d757374206265203e203607c1b6044820152606401610205565b5f81116102a05760405162461bcd60e51b815260206004820152601f60248201527f5175616e74697479206d757374206265203e203020746f207075626c697368006044820152606401610205565b6040518060a00160405280848152602001838152602001828152602001428152602001336001600160a01b03168152505f846040516102df919061064c565b908152604051908190036020019020815181906102fc90826106e6565b5060208201516001820155604080830151600283015560608301516003830155608090920151600490910180546001600160a01b0319166001600160a01b039092169190911790555161035090849061064c565b60408051918290038220848352602083018490523383830152905190917f39f1d3a925c6f5f57f1ea02f69344a8cf29950fab9a47a6409235d23a29f9d3a919081900360600190a2505050565b80516020818301810180515f825292820191909301209152805481906103c290610662565b80601f01602080910402602001604051908101604052809291908181526020018280546103ee90610662565b80156104395780601f1061041057610100808354040283529160200191610439565b820191905f5260205f20905b81548152906001019060200180831161041c57829003601f168201915b50505050600183015460028401546003850154600490950154939491939092506001600160a01b031685565b634e487b7160e01b5f52604160045260245ffd5b5f82601f830112610488575f5ffd5b813567ffffffffffffffff8111156104a2576104a2610465565b604051601f8201601f19908116603f0116810167ffffffffffffffff811182821017156104d1576104d1610465565b6040528181528382016020018510156104e8575f5ffd5b816020850160208301375f918101602001919091529392505050565b5f60208284031215610514575f5ffd5b813567ffffffffffffffff81111561052a575f5ffd5b61053684828501610479565b949350505050565b5f81518084528060208401602086015e5f602082860101526020601f19601f83011685010191505092915050565b602081525f825160a0602084015261058760c084018261053e565b905060208401516040840152604084015160608401526060840151608084015260018060a01b0360808501511660a08401528091505092915050565b5f5f5f606084860312156105d5575f5ffd5b833567ffffffffffffffff8111156105eb575f5ffd5b6105f786828701610479565b9660208601359650604090950135949350505050565b60a081525f61061f60a083018861053e565b602083019690965250604081019390935260608301919091526001600160a01b0316608090910152919050565b5f82518060208501845e5f920191825250919050565b600181811c9082168061067657607f821691505b60208210810361069457634e487b7160e01b5f52602260045260245ffd5b50919050565b601f8211156106e157805f5260205f20601f840160051c810160208510156106bf5750805b601f840160051c820191505b818110156106de575f81556001016106cb565b50505b505050565b815167ffffffffffffffff81111561070057610700610465565b6107148161070e8454610662565b8461069a565b6020601f821160018114610746575f831561072f5750848201515b5f19600385901b1c1916600184901b1784556106de565b5f84815260208120601f198516915b828110156107755787850151825560209485019460019092019101610755565b508482101561079257868401515f19600387901b60f8161c191681555b50505050600190811b0190555056fea2646970667358221220d58f7ae18d935554d85ffe75f0b4fdebd3d4f7fda31c8631d8ffd8f8fad017bc64736f6c634300081c0033",
  "linkReferences": {},
  "deployedLinkReferences": {},
  "immutableReferences": {},
  "inputSourceName": "project/contracts/AgroLedgerProduce.sol",
  "buildInfoId": "solc-0_8_28-dfb2ccd8762d30785f5f7f4f784dab6b7ea9489e"
}